S0120000746865726D6F737461742E73726563C7
S11300000C942A000C9447000C9447000C9447006D
S11300100C9447000C9447000C9447000C94470040
S11300200C9447000C9447000C9447000C94470030
S11300300C9447000C9447000C9447000C94470020
S11300400C9447000C9447000C9447000C94470010
S11300500C94470011241FBECFE5D8E0DEBFCDBF0E
S113006010E0A0E6B0E0E0E5FAE002C005900D92F1
S1130070AC37B107D9F720E0ACE7B0E001C01D927E
S1130080A038B207E1F70E9496010C9426050C945F
S11300900000FC010FB6F89460917C0070917D0023
S11300A080917E0090917F000FBE309721F0608395
S11300B071838283938308959BB39F70282F207F3D
S11300C0922B9BBB9BB39E7F9BBB9BB392609BBBC2
S11300D032E03A95F1F700C09BB39D7F9BBBE7EC00
S11300E0F0E03197F1F700C000002BB3F0E18F9FEF
S11300F0C0011124922F9F70892B8BBB8BB382601C
S11301008BBB32E03A95F1F700C08BB38D7F8BBB8C
S11301108FE99FE00197F1F700C0000008959BB3B9
S11301209F70282F207F922B9BBB9BB391609BBB1E
S11301309BB392609BBB32E03A95F1F700C09BB34E
S11301409D7F9BBBE7ECF0E03197F1F700C0000026
S11301502BB3F0E18F9FC0011124922F9F70892B44
S11301608BBB8BB382608BBB32E03A95F1F700C056
S11301708BB38D7F8BBB8FE99FE00197F1F700C0B4
S1130180000008958FEF8ABB8FE39CE90197F1F794
S113019000C0000082E00E945C0088E20E945C00D3
S11301A08CE00E945C0081E00E945C0082E80E9476
S11301B05C0008950F931F93CF93DF938C01C0E0ED
S11301C0D0E003C00E948F002196F801EC0FFD1FC0
S11301D080818111F7CFDF91CF911F910F91089505
S11301E0CF93DF93EA01813031F4862F8F708068DA
S11301F00E945C0007C0823029F4862F8F70806CC7
S11302000E945C00CE010E94DA00DF91CF91089534
S11302108617970724F415BA8AE088BB08956817EF
S113022079071CF48FEF85BB089515BA08950F93D1
S11302301F93CF938C01992334F4119501951109DF
S11302408DE20E948F00C8016AE070E00E943F04C2
S1130250C62F662321F080E3860F0E948F00CC0F07
S11302608C2F880F880FC80F802F8C1B805D0E94F5
S11302708F00CF911F910F9108954F925F926F92CB
S11302807F928F929F92AF92BF92CF92DF92EF9222
S1130290FF920F931F93CF93DF9300D000D0CDB77D
S11302A0DEB74B015C0129013A01E982FA820B8332
S11302B01C830E94B304BC01990F880B990B0E9404
S11302C0460320E03EEF4FEF56E40E949C026B0190
S11302D07C01A5019401C301B2010E942F029B017C
S11302E0AC01C701B6010E94D2039B01AC01C50158
S11302F0B4010E94300229813A814B815C810E94C1
S113030030020F900F900F900F90DF91CF911F91BB
S11303100F91FF90EF90DF90CF90BF90AF909F90A0
S11303208F907F906F905F904F900895CFEFC4BBF4
S113033011BAC2BB80E090E00E944900CB010E9448
S1130340B8040E94C200CABBC4E1D0E00E94B30456
S1130350BC01990F880B990B0E94460320E03EEFE5
S11303604FEF56E40E949C0220E030E040EF51E45D
S11303700E94D20320E030E040E251E40E943002C7
S11303807B018C0120E030E040EA50E460E070E062
S113039080EA90EC0E943D012B013C0120E030E01A
S11303A040EA50E460E070E080EA90EC0E943D0195
S11303B09B01AC01C301B2010E94300220E030E095
S11303C040E05FE30E94D2030E940E036B017C01B4
S11303D044E650E060E081E00E94F0002FE38DE00D
S11303E093E0215080409040E1F700C00000C60136
S11303F00E9417012FE38DE093E02150804090404C
S1130400E1F700C00000869907C0C832D10514F492
S1130410219602C0C0E0D0E0879907C0C531D1055C
S113042014F0219702C0C4E1D0E080EC0E945C008B
S11304304DE650E060E082E00E94F000CE010E94B0
S113044017012FE38DE093E0215080409040E1F7C5
S113045000C00000B601CE010E94080177CF5058B9
S1130460BB27AA270E9447020C9498030E948A0380
S113047038F00E94910320F039F49F3F19F426F4D8
S11304800C9487030EF4E095E7FB0C948103E92FA9
S11304900E94A90358F3BA176207730784079507E4
S11304A020F079F4A6F50C94CB030EF4E0950B2E12
S11304B0BA2FA02D0B01B90190010C01CA01A001B2
S11304C01124FF27591B99F0593F50F4503E68F10D
S11304D01A16F040A22F232F342F4427585FF3CF4E
S11304E0469537952795A795F0405395C9F77EF41F
S11304F01F16BA0B620B730B840BBAF09150A1F068
S1130500FF0FBB1F661F771F881FC2F70EC0BA0FED
S1130510621F731F841F48F4879577956795B79575
S1130520F7959E3F08F0B0CF9395880F08F0992770
S1130530EE0F9795879508950E94B0020C94980346
S11305400E94910358F00E948A0340F029F45F3F0F
S113055029F00C94810351110C94CC030C9487035F
S11305600E94A90368F39923B1F3552391F3951BD2
S1130570550BBB27AA2762177307840738F09F5FC0
S11305805F4F220F331F441FAA1FA9F335D00E2E2D
S11305903AF0E0E832D091505040E695001CCAF79A
S11305A02BD0FE2F29D0660F771F881FBB1F26175D
S11305B037074807AB07B0E809F0BB0B802DBF0134
S11305C0FF2793585F4F3AF09E3F510578F00C9403
S11305D081030C94CC035F3FE4F3983ED4F38695F7
S11305E077956795B795F7959F5FC9F7880F911D24
S11305F09695879597F90895E1E0660F771F881F10
S1130600BB1F621773078407BA0720F0621B730BC2
S1130610840BBA0BEE1F88F7E09508950E9415032A
S11306206894B1110C94CC0308950E94B10388F02E
S11306309F5798F0B92F9927B751B0F0E1F0660FA2
S1130640771F881F991F1AF0BA95C9F714C0B130E3
S113065091F00E94CB03B1E008950C94CB03672F73
S1130660782F8827B85F39F0B93FCCF38695779512
S11306706795B395D9F73EF49095809570956195FB
S11306807F4F8F4F9F4F0895E89409C097FB3EF426
S113069090958095709561957F4F8F4F9F4F9923CB
S11306A0A9F0F92F96E9BB279395F6958795779549
S11306B06795B795F111F8CFFAF4BB0F11F460FF09
S11306C01BC06F5F7F4F8F4F9F4F16C0882311F061
S11306D096E911C0772321F09EE8872F762F05C075
S11306E0662371F096E8862F70E060E02AF09A9510
S11306F0660F771F881FDAF7880F9695879597F905
S1130700089597F99F6780E870E060E008959FEF8F
S113071080EC089500240A94161617061806090694
S1130720089500240A941216130614060506089563
S1130730092E0394000C11F4882352F0BB0F40F4EB
S1130740BF2B11F460FF04C06F5F7F4F8F4F9F4F2B
S1130750089557FD9058440F551F59F05F3F71F0AD
S11307604795880F97FB991F61F09F3F79F0879514
S11307700895121613061406551FF2CF4695F1DF9D
S113078008C0161617061806991FF1CF869571052D
S1130790610508940895E894BB2766277727CB0161
S11307A097F908950E94E5030C9498030E948A0324
S11307B038F00E94910320F0952311F00C948103EA
S11307C00C94870311240C94CC030E94A90370F3A6
S11307D0959FC1F3950F50E0551F629FF001729FE2
S11307E0BB27F00DB11D639FAA27F00DB11DAA1FF1
S11307F0649F6627B00DA11D661F829F2227B00D3E
S1130800A11D621F739FB00DA11D621F839FA00DC8
S1130810611D221F749F3327A00D611D231F849F18
S1130820600D211D822F762F6A2F11249F5750406F
S11308309AF0F1F088234AF0EE0FFF1FBB1F661FEA
S1130840771F881F91505040A9F79E3F510580F0B3
S11308500C9481030C94CC035F3FE4F3983ED4F3EF
S1130860869577956795B795F795E7959F5FC1F757
S1130870FE2B880F911D9695879597F9089597FB00
S1130880072E16F4009407D077FD09D00E94530474
S113089007FC05D03EF4909581959F4F089570957F
S11308A061957F4F0895AA1BBB1B51E107C0AA1F86
S11308B0BB1FA617B70710F0A61BB70B881F991FFD
S11308C05A95A9F780959095BC01CD0108958F9212
S11308D09F92AF92BF92CF92DF92EF92FF92CF930B
S11308E0DF93EC01688179818A819B8161157105AF
S11308F08105910521F464E279ED8BE597E02DE122
S113090033EF41E050E00E94C30449015A019B01C6
S1130910AC01A7EAB1E40E94E2046B017C01ACEEF5
S1130920B4EFA50194010E94F004DC01CB018C0D0D
S11309309D1DAE1DBF1DB7FF03C00197A109B0489F
S113094088839983AA83BB839F77DF91CF91FF909C
S1130950EF90DF90CF90BF90AF909F908F900895CD
S11309600E946704089580E690E00E946704089559
S1130970A0E0B0E08093600090936100A0936200D7
S1130980B09363000895052E97FB1EF400940E9413
S1130990DA0457FD07D00E94F50407FC03D04EF497
S11309A00C94DA0450954095309521953F4F4F4F64
S11309B05F4F089590958095709561957F4F8F4F07
S11309C09F4F08950E941705A59F900DB49F900D09
S11309D0A49F800D911D11240895B7FF0C94E20487
S11309E00E94E204821B930B0895A1E21A2EAA1B13
S11309F0BB1BFD010DC0AA1FBB1FEE1FFF1FA217CB
S1130A00B307E407F50720F0A21BB30BE40BF50BC7
S1130A10661F771F881F991F1A9469F76095709550
S1130A20809590959B01AC01BD01CF010895A29FD3
S1130A30B001B39FC001A39F700D811D1124911DAE
S1130A40B29F700D811D1124911D0895F894FFCF5C
S1130A500100000063757272656E743A0064657318
S10F0A60697265645F74656D703A200073
S9030000FC
